:020000040800F2
:10000000A008002081010008E11C0008411B000835
:1000100000000000000000000000000000000000E0
:10002000000000000000000000000000DF2F0008BA
:100030000000000000000000692200085D31000897
:10004000B101000800000000792B0008B101000890
:10005000B101000805170008B101000825170008C4
:1000600000000000B1010008B1010008B101000862
:100070003D150008B1010008B101000800000000B2
:10008000B133000800000000000000001533000834
:10009000B1010008B1010008B1010008B101000878
:1000A000B1010008B1010008B1010008B101000868
:1000B000B101000800F002F800F053F80CA030C8BD
:1000C000083824182D18A246671EAB4654465D46D4
:1000D000AC4201D100F045F87E460F3E0FCCB6464B
:1000E0000126334200D0FB1AA246AB4633431847E1
:1000F000EC3D00000C3E0000103A02D378C878C1F5
:10010000FAD8520701D330C830C101D504680C6059
:10011000704700000023002400250026103A01D378
:1001200078C1FBD8520700D330C100D50B607047AF
:1001300010B5662902D103F04FFE10BD752902D11A
:1001400000F094F810BD002010BD1FB500F0E0FDD8
:1001500004000020002103F0F7FCE0601FBD10B593
:1001600010BD01F047F91146FFF7EFFF03F0EEFB7A
:1001700001F05FF903B4FFF7F2FF03BC01F0D6F919
:100180000F4880F308880F480168090E0E4A914213
:1001900005D10E480E4901600E480F4901600F4815
:1001A00080470F480047FEE7FEE7FEE7FEE7FEE771
:1001B000FEE700000B480C490C4A0D4B704700004D
:1001C000A0080020040000001F00000018100240DA
:1001D0000100000000000140000000007D31000827
:1001E000B5000008A0020020A0080020A004002004
:1001F000A00400200FB41CB5074B06AA7B44694637
:100200000090059800F025FD0020694600F034FDBF
:100210001CBC08BC04B01847790A000070B504463D
:1002200085690068C10601D5302600E02026C00798
:1002300007D070BD62683046A1689047206A401CB4
:1002400020626D1EF6D570BD70B5044685690078D4
:10025000C00707D170BD6268A16820209047206A5E
:10026000401C20626D1EF6D570BD0000F7B500255C
:1002700075291068009914A611D0C046C046002800
:1002800002DA404211A608E0009909688A0701D500
:100290000FA602E0490704D50EA6012501E0C046DD
:1002A000C046009F0024243704E000F0EAFC30310F
:1002B0003955641C0028F8D12B4632462146009857
:1002C00000F05FFAFEBD0000000000002D000000FD
:1002D0002B00000020000000F3B50446002081B090
:1002E00020622046E168884700287DD0252802D07A
:1002F0006268A16883E0454F00257F442046E1689D
:1003000088472028064608DB312E06D2B819203847
:100310000078002801D00543F0E7A80701D50420A4
:1003200085430020E0610746A0612A2E0AD03046AE
:1003300003F0F0F9002827D0B8000019303E0090F3
:10034000866119E00298BA00121902C89161029000
:100350002046E1688847012F064617D1E06900284A
:100360001FDA202085431CE000980A218069484359
:1003700000998019303888612046E1688847064630
:1003800003F0C8F90028EFD1012F0AD02E2E08D192
:100390002046E16888470646202005437F1C022F3F
:1003A000C3DBA069002803DA4042A06101200543B5
:1003B000E80701D010208543002E24D03046413874
:1003C000192803D80120C0020543203620462560A5
:1003D0003146029A1546FFF7ABFE00280CD00128E3
:1003E00007D0ED1DE80800E00DE0C00008300290E5
:1003F00077E72D1D029574E762683046A168904743
:10040000206A401C6CE7206AFEBD0000F93A00003B
:10041000002203098B422CD3030A8B4211D3002301
:100420009C464EE003460B433CD4002243088B42DB
:1004300031D303098B421CD3030A8B4201D3944668
:100440003FE0C3098B4201D3CB01C01A524183095B
:100450008B4201D38B01C01A524143098B4201D315
:100460004B01C01A524103098B4201D30B01C01A40
:100470005241C3088B4201D3CB00C01A52418308BA
:100480008B4201D38B00C01A524143088B4201D3E7
:100490004B00C01A5241411A00D201465241104647
:1004A00070475DE0CA0F00D04942031000D34042BC
:1004B000534000229C4603098B422DD3030A8B42F2
:1004C00012D3FC22890112BA030A8B420CD3890190
:1004D00092118B4208D3890192118B4204D3890176
:1004E0003AD0921100E08909C3098B4201D3CB01B4
:1004F000C01A524183098B4201D38B01C01A524169
:1005000043098B4201D34B01C01A524103098B426C
:1005100001D30B01C01A5241C3088B4201D3CB0057
:10052000C01A524183088B4201D38B00C01A52413A
:10053000D9D243088B4201D34B00C01A5241411A11
:1005400000D20146634652415B10104601D340423F
:10055000002B00D54942704763465B1000D34042F0
:1005600001B50020C046C04602BD704770477047C5
:100570000121C9050123411842001B06D3185B0E57
:100580000AD0C1100722D206891840075242D14230
:1005900001D5520089187047090208D50146002A82
:1005A00003D0C10FC90700207047104670474202B0
:1005B00002D0002002497047072109050143F4E7F2
:1005C0000000F87FF0B5FF252D04C609C209FF27FA
:1005D00004462E400137CB093E4348402A402B4079
:1005E0000746002A6BD0002B69D0AA4267D0AB42E5
:1005F00065D0002800DA32460125ED0529432C4359
:1006000009022002090AD21A4B0C7F24E31A434C38
:10061000000A7C44E35C7D242404121914145B005A
:10062000A218884201D3521C00E0400049420C4607
:100630005C4324115C43DB016415E318040A5C434A
:10064000C502200D0C4644436419250A5D4323036B
:10065000EC0C0D46654300030019EB184C42A34215
:1006600001D35B18401CD4052018002B07D05B0079
:10067000C91804D3401C002901D1400840003F2183
:1006800089048A4209D3002A08DC1106090F04D024
:10069000032149074018C00FC007F0BD01224100E7
:1006A000120689187F2252069142F6D20521490787
:1006B000C84201D59010F0BDFF20C005F0BD002F4D
:1006C00000DA32461648AA4207D2AB4205D21902D6
:1006D000090E17D0F80FC007F0BDFF2563002D06E7
:1006E000AB42F9D84900A942F6D8AB4201D1A942A0
:1006F000F2D0A94201D1002101E061004908D005F2
:100700000843F0BD1102090EFBD0FF200243D005C3
:10071000F0BD0A460146104654E70000F2370000DB
:100720000000C07F1F22030C02D10F2200041CD046
:10073000030E01D10002083A030F01D10001121F7C
:10074000830F01D18000921E002801DB4000521E61
:10075000D2055118021251181922904004D3491C95
:10076000002801D14908490008467047C10FC90750
:1007700000D04042012292071143D3E701218907AB
:10078000D0E7FFB504460D4681B0243000902168C3
:10079000880604D51022E0699143216000E0012021
:1007A000A84201DD471B00E000270498A1697A19DF
:1007B0001018081AA0612078C00602D42046FFF75E
:1007C0002DFD002608E003986268A168805D9047CF
:1007D000206A401C761C206204988642F3DB207855
:1007E000C0060AD52046FFF719FD06E06268A16839
:1007F00030209047206A401C206238467F1E002827
:10080000F4DC07E000986268A168405D9047206AC8
:10081000401C206228466D1E0028F3DC2046FFF7AE
:1008200013FD2078000602D5022005B0F0BD01209E
:10083000FBE700007047FFB50C461E468FB003CAA9
:10084000089009914F007D0D00D16D1E00210846D2
:100850000020C0460321099A89050840002A03DACE
:100860008200801840080840800D01280A9002DDAF
:100870000020C0430A90089807430DD0EF48F04984
:10088000281848430714189800281DD07542291EBF
:100890001DDD0A9842421BE01898012802D0002072
:1008A000302104E00020F24305E02154401CB04216
:1008B000FBDB30460022189B002121540F998B60EE
:1008C0000A60486013B0F0BDBD1B6D1CDFE70A9ADB
:1008D000002900DA69420BA800F0A0FA0BAB07CBA5
:1008E00003AB07C30899099800F0FCFA6B4607C3ED
:1008F0000146D4480918002D00910ADDD14903981A
:100900000A9A4942401803A90390684600F01DFD69
:1009100007E003990A9A081803A90390684600F0B3
:10092000DCFC6B4607C30004000C03D00020C0436E
:10093000410800E01046189A002A03D000220092D5
:1009400015461EE0751E05D400F0E6F930326255FA
:100950006D1EF9D501220843079602D000227F1CA4
:1009600004E02078302801D100227F1E002A06975B
:1009700089D01EE0112D07DA00F0CEF93032625531
:100980006D1C02460A43F5D1084303D000980028A5
:1009900019D00EE00021681E05E0235C625C635400
:1009A0002254401E491C8142F7DBA81B401E0795BC
:1009B0000690079A18990020A0540F98079B069A52
:1009C00081600CC07EE71126002018905BE7D21DE5
:1009D000F0B50D460446D10893B0C90003C90C9088
:1009E0000D9102F081FE02460D98C00F01D02D201E
:1009F00007E02068810701D52B2002E04007C00FE7
:100A00004001032A0F9001D0072A05DB034629463F
:100A1000204600F0BFF90EE12078800601D5E76995
:100A200000E006272846652D04D0662814D0672DDF
:100A300069D12DE00020112F009001DB112300E08F
:100A40007B1C0CAA03A910A8FFF7F5FE119900263C
:100A500010987D1C0E9142E001203B460CAAC00775
:100A60000B900120009003A910A8FFF7E4FE119D50
:100A700012981099002600280E9501D1781C0D18A7
:100A8000781B02D446427D1C761EE81B00903AE09B
:100A9000012F00DA01270020112F009001DD112322
:100AA00000E03B460CAA03A910A8FFF7C4FE119969
:100AB0003D46109800260E91217809070BD40E9917
:100AC000A94200DA0D4603A9012D04DD4A19203A96
:100AD000D27F302A06D0B84201DA011D04DA0121A2
:100AE00000910FE06D1EEFE7002802DC86192D1A39
:100AF00003E0411CA94200DD0D46801B401C009014
:100B00000120C0070B902078000705D40098A84268
:100B100002DB0020C043009069460020C8720B9899
:100B2000012102AF0337C907884225D00220109067
:100B30002B2011900B9800280BDA40420B902D20AF
:100B4000119006E00B9800F09CF830317F1E0B905E
:100B500039701099481E00291090F3DC0B9800287A
:100B6000F0D111987F1E38702088000501D54520EE
:100B700000E065207F1E387001A8C01BC01D0B90CF
:100B80000F98002800D0012041190098C0170918BB
:100B90000B980818A169081A401EA0612078C006A9
:100BA00002D42046FFF73AFB0F98002805D0626870
:100BB000A1689047206A401C20622078C00625D595
:100BC0002046FFF72BFB21E0002E07DB0E98B042FA
:100BD00004DD03A86268805DA16802E06268A16824
:100BE00030209047206A761C401C20620098401EEE
:100BF000002800900AD100F08BF8C0686268016894
:100C0000405CA1689047206A401C206228466D1E07
:100C10000028D9DC07E062683878A1687F1C90471B
:100C2000206A401C20620B99481E00290B90F2DCC0
:100C30002046FFF709FB032044E6000001FCFFFF0C
:100C4000104D0000E1DFFFFF01694A1C02610878D6
:100C5000704700B58FB002910021059105490193BD
:100C600079440391114604906846FFF735FB0FB0B5
:100C700000BD0000E5FFFFFF0A681070521C0A600B
:100C8000704701468008081A02091018020A101855
:100C9000020C1018C008820012185200891A01E0D4
:100CA000401C0A390A29FBD27047000010B5FF2307
:100CB0001B0644009C421DD84C009C421AD8034697
:100CC000124A0B4307D4401A02D3EFF3008010BD41
:100CD000EFF3008010BD081A06D2EFF30080012167
:100CE0009043C907084302E0EFF30080904380F38C
:100CF000008810BD0D231B041A4204D011460020A9
:100D000000F054FB10BD00F069FB10BD0000009026
:100D1000004870475C0200200B4670B50246890708
:100D20008008084319469D08141AA9412509080797
:100D3000054308092C194841250A01060D43010AFB
:100D40002C194141200C0D0428430D0C00194D4174
:100D5000002140194D41C00869070843E908840F84
:100D60008D002543840024184D4124196D41121B28
:100D7000AB4107E00925ED432C11521963410024D2
:100D8000401C61411C460A250026551BB441F1D286
:100D900070BD0000F8B51F46044601230068DB0261
:100DA000032601461840072A05DB002801D017A5B5
:100DB00006E017A504E0002801D016A500E016A55E
:100DC000102081432160A069C01E002FA06101D0C6
:100DD000401EA0612046FFF721FA002F09D03846B7
:100DE0006268A1689047206A401C2062C01C206293
:100DF00006E0206AFAE762682878A1686D1C9047CF
:100E0000761EF8D22046FFF71FFAF8BD4E414E007D
:100E10006E616E00494E4600696E6600F7B5164673
:100E20008AB02F4878446C4603467C33C06F5A68BA
:100E30009B680DC42A487844763003AC0DC80DC4B5
:100E40003720C001081837211B30FFF7EBFA0546A1
:100E50000C46803D1B3C02D56442012000E000208E
:100E6000002709900FE0E0070BD00C201C497843C5
:100E7000794432464C394118684600F02EFA6B46E8
:100E800007C364107F1C002CEDD1154F7F442C3F0D
:100E900015E0E80711D02001C0190EC8069108938B
:100EA00007920068F04201D198190890324606A9CD
:100EB00003A800F012FA03AB07C36D10641C002DE9
:100EC000E7D1324669460998002803A802D000F00D
:100ED0003CFA01E000F001FA0A9B07C30DB0F0BD37
:100EE00020300000034640000A4610B5400D0BD0EC
:100EF0000121C9070F24A40200191C03640821431F
:100F0000540D2143D20207E000210120F2E7D40F63
:100F1000490021435200401E0029F8DADB0FDB07AD
:100F2000184310BDFFB50D46144685B0486851689A
:100F300002F0C2FB00910190A868A16802F0BCFB1E
:100F400002910390A868616802F0B6FB029A121839
:100F50008242029201D2012000E00020019A0B1887
:100F6000D2180028019202D08A4202D903E08A42B4
:100F700001D2012000E00020009908180090686864
:100F8000A16802F099FB029A12188242029201D2E1
:100F9000012000E00020019A0B18D21800280192CD
:100FA00002D08A4202D903E08A4201D2012000E045
:100FB0000020009908180090286821684000490026
:100FC000400849084018F549471814E001994000C5
:100FD000C90F08430090019802994000C90F0843C7
:100FE0000190029803994000C90F084302900398AA
:100FF00040007F1E039000980028E7DA0898002838
:1010000001D0E74E00E00026B74228DAF71BF806C9
:10101000C00E15D0029B2021091A039A8B401A4357
:101020000392029A019BC2408B401A430292019A9A
:10103000009BC2408B4000991A430192C14000912D
:101040007A110BD06B460320811A01D5002101E0F3
:10105000890059588700401ED951F5D53746039865
:101060000299002800D0012001430898029100282D
:1010700008460CD0002800D001200199019A4905AA
:1010800008430121D20AC902D202019200E00121E3
:101090000E9B0122D207012B02D0002B03D013E0BC
:1010A000002807D116E0904204D890420CD1019B51
:1010B0000B4209D0019B5918019105D10099491C97
:1010C000009101D17F1C0092002803D01021084616
:1010D0000020C04628682168019B009A4840C10F43
:1010E0000598C90739430EC009B0F0BDFFB587B0F8
:1010F000099A0898089953689268406889689646E2
:101100000022039317469446089A12685300099ADE
:101110005B081268520052089A1AA24BD4180A9A15
:10112000002A01D0352200E040220692002201234D
:1011300015460492DB07059324E0002D05D1754682
:101140000346039E4D1BB34109D375466646039B78
:10115000491B049D9841059B7519AC465F41634648
:101160003B4308D0059B049EDD0776082E435B08B1
:101170000496059301E0521E641EC50FED07491841
:101180004041521C069B9A42D7DB002D04D1754684
:10119000039A6B1A824101D203200CE0039A0B469A
:1011A0006B404240134303D0014303D0012002E0CF
:1011B000022000E000206146019100210097029189
:1011C0000A99002905D0614640020143744B019100
:1011D00002E08007002302909C423ADA1A1BD006F4
:1011E000C00E15D0029D2021019C091AC5408C40DB
:1011F0002543029C8C4000D001242543019C02958C
:101200003D46C4408D4039462C43C1400194009175
:1012100054111DD06D460221002202290CD1032059
:10122000001B07E0002804DB8600AE59002E00D02A
:101230000122401C0328F5DB081B02D588002A5038
:1012400004E08000285810438A00A850491EE3D5C6
:101250001C460A98002802980CD0002800D00120D3
:101260000199019A490508430121D20AC902D20213
:10127000019200E00121109B0122D207012B02D034
:10128000002B03D013E0002807D116E0904204D8C9
:1012900090420CD1019B0B4209D0019B591801913E
:1012A00005D10099491C009101D1641C00920028CD
:1012B00003D0102108460020C04608980999019AD9
:1012C0000068096848400099C30F0798DB0723436B
:1012D0000360826041600BB0F0BD1FB50023009237
:1012E0000A46014601A8FFF71DFE01AB07CB04B07B
:1012F00010BDF0B585B0012300920A46014601A851
:10130000FFF710FE01990F2202989202CF0F4900B9
:10131000039E49088C1AFF070021002800DB0C46B9
:10132000450021486D08844206D30D460E4604460A
:10133000102108460020C0462005E90A0843690537
:101340003843F20A05B01143F0BD1FB500230092E7
:101350000A46014601A8FFF7C9FE01AB07CBC6E765
:101360001FB5012300920A46014601A8FFF7BEFE01
:1013700001AB0F2407CBA402C30F4000DB074008DA
:10138000001B002900DB0020490000054908CC0AA9
:10139000204349051843D20A1143A8E702C0FFFFC2
:1013A000013C0000FF3F0000FF070000C80212D50B
:1013B0004803400F002804D0C803C04301218840DF
:1013C0007047EFF30080000100090321090708437B
:1013D00080F30088704700207047000010B5024875
:1013E00000F074F810BD00000000C07F0048704796
:1013F0003C0200207546FFF7F9FFAE46050069463E
:101400005346C008C000854618B020B5FEF7D2FE8E
:1014100060BC00274908B6460026C0C5C0C5C0C587
:10142000C0C5C0C5C0C5C0C5C0C5403D49008D468A
:10143000704710B50446C046C0462046FEF79AFEE7
:1014400010BD0000024670B50A4392072AD11E4D16
:10145000EE0104C808C9541B9443344017D0D0B2DD
:10146000D9B2401A2106014310D190B299B2401A64
:10147000210401430AD110021902000A090A401A84
:101480002102014302D1100E190E401A70BD9A427A
:10149000DFD010BA19BA884201D9012070BD0020EE
:1014A000C04370BD02780B78401C491C002A09D04B
:1014B0009A4207D102780B78401C491C002A01D0BF
:1014C0009A42EFD0D01A70BD0101010110B50C464F
:1014D0001107090F092904D00A290AD008290CD1BB
:1014E00004E011460820FFF761FF06E0510606D52B
:1014F00001E0510601D50120C007214610BDD106EB
:1015000007D501010909CC084907000E000604436C
:1015100009E0410F20024907000A0143200E00069E
:101520001D22D14101430846E7E700000149182088
:10153000ABBEFEE7260002007047000010B5042194
:10154000144800F06DF8012819D10421114800F069
:1015500035F8104800F060F80F490A780978491CFE
:101560000D4B197051000D4A5052184600789628BC
:1015700005D101200A490870002019460870082189
:10158000044800F04DF8012803D10821014800F07B
:1015900015F810BD00240140000000209400002038
:1015A0000800002010B50B460021846A1C438462A9
:1015B00000BF0C4614432146416110BD01607047D5
:1015C00001617047002904D0826801231A438260B8
:1015D00003E0826802231A438260704730B50146F7
:1015E0000020002200238C680125ED072C438C602D
:1015F00000BF8C68E30FDB07521C0F242403A242B8
:1016000001D0002BF5D18C68E40FE407002C01D148
:10161000086C00E0002030BD0146086C80B27047C5
:1016200030B5024600200023012424060C40002C83
:1016300005D0946801252D06AC43234600E01368CD
:101640001C460C40002C01D0012000E0002030BDE1
:10165000002A03D043680B43436002E043688B4396
:101660004360704710B50022C268084B1A400C79DD
:1016700064030B6823438C682343CC6823430C69C1
:1016800023434C6923431A43C26010BD03D2FFFFBA
:1016900081680422114381607047816810221143E0
:1016A00081607047002807D00749896801229205A8
:1016B0001143054A916006E00349896801229205B9
:1016C0009143014A9160704700270140002905D0ED
:1016D000054A52680243044B5A6004E0024A5268C9
:1016E0008243014B5A6070470058014001B50449DC
:1016F0000098086000BF024800680028FBD108BDC0
:101700007800002010B5022000F09AF8002805D0DB
:10171000022000F025F801200149087010BD0000EA
:101720000C00002010B50120800200F089F800288C
:1017300006D00120800200F013F8084800F066FB94
:101740000120C00300F07CF8002805D00120C00370
:1017500000F006F800F08EFC10BD00000002002032
:1017600001494861704700000004014000B585B0A0
:101770000121480400F078FE0121880400F074FE85
:101780000120800201900021684601720121C1728E
:1017900001A90920C00600F0A5F80220019001A9C6
:1017A000264800F09FF80120C003019001A90920FC
:1017B000C00600F097F80121084600F085FE0A21D6
:1017C000002001F00DFC01208002FFF7C9FF0F216E
:1017D000002001F005FC0120C003FFF7C1FF01213B
:1017E000084601F0FDFB0220FFF7BAFF012080024E
:1017F00003900C2168464174002101740121817419
:1018000003A800F02BF80220039003A800F026F8AC
:101810000120C003039003A800F020F807216846C8
:101820000170002141700121817000F063FC0521ED
:101830006846017000F05EFC05B000BD0004004881
:1018400001460020044A52690A40002A01D00120C2
:1018500000E0002070470000000401400021204902
:101860008279002A35D00A46126803689A430B46EB
:101870001A600A46526803689A430B465A60027916
:1018800051180A6803681A430A60154A9268036887
:101890009A43134B9A601A46D26803689A43104BD6
:1018A000DA604279102A0CD11A46926803681A430A
:1018B0000B4B9A601A46D26803681A43084BDA60E9
:1018C0000DE00749427951180A6803681A430A6013
:1018D00005E0027951180A6803689A430A60704764
:1018E00000040140F0B50A4600210023002400BF97
:1018F0003DE001258D402B4615681D402C469C423D
:1019000034D11579012D02D01579022D16D18568B3
:101910004F000326BE40B543856055794E00B54063
:10192000866835438560858801268E40B54385806D
:10193000858896798E40B6B23543858005684F001C
:101940000326BE40B543056015794E00B5400668D4
:1019500035430560C5684F000326BE40B543C560EA
:10196000D5794E00B540C6683543C560491C10297D
:10197000BFD3F0BDF0B5002300244D07EE0E154691
:10198000B5402B46CD10AE0005462035AD594E076B
:10199000F70E0F26BE40B543CE10B60007462037DF
:1019A000BD51CD10AE003D46AD591D432C46CD1066
:1019B000AD003E467451F0BD02460020938A0B40B4
:1019C000002B01D0012000E0002070470185704706
:1019D0001CB50121480400F047FD0121880400F0F6
:1019E00043FD032168460171012181710648009081
:1019F00000216846C1710920C00600F00BF80021E3
:101A0000024800F007F81CBDFFFF0000000400487A
:101A10008161704781827047002A01D0816100E0B6
:101A2000018570471FB50121480400F01DFD01210B
:101A3000880400F019FD38200090012168460171EA
:101A40000321417100218171C17169461348FFF77B
:101A500049FF01216846017300218173042002902F
:101A60006846C1730121417302A90920C006FFF72E
:101A700039FF0120C002029002A90920C006FFF729
:101A800031FF04210920C006FFF7C2FF0121C9026E
:101A90000920C006FFF7BCFF1FBD0000000400487E
:101AA00000B58DB00121080200F0EEFC214801F0E4
:101AB000B9FC012200211F4801F08EFD01211D48C3
:101AC00001F08DFD002168468184C18401210185DA
:101AD0000C2141850021818509A9164801F03AFDB4
:101AE000132108A8017400214174012181740CA8FC
:101AF00000F000FB01210F4801F086FC00200D4999
:101B00000882012202210B4801F05CFD00BF0A4857
:101B100000680228FBD1074801F084FC684600F009
:101B200007FD064902980968FEF772FCC0000DB077
:101B300000BD000000200040680000206C00002074
:101B400000BFFEE7C1617047002904D0026801238D
:101B50001A43026003E002685208520002607047B4
:101B600010B502460023002093691C460C40234612
:101B7000002B01D0012000E0002010BD10B50A4666
:101B8000002103685B085B0003600168144B194087
:101B90009468240253682343194301600F242406E8
:101BA0001368A343036103680124234303600021F6
:101BB0008160C16014699369234319468160836819
:101BC0000124E40323438360D16803680B4303606B
:101BD0004168044B194053691943416010BD00002E
:101BE000FFE0CF00FF7FFF07FFB583B006460C463E
:101BF00017460020029000BF0121C9032948FFF7C2
:101C0000AFFF0128F8D001204003002301228021EA
:101C10000090244800F04EF800BF02212148FFF751
:101C20009FFF0028F9D0F1B21E4800F041F800BF34
:101C300040211C48FFF794FF0028F9D009208002BA
:101C400001235B063A4680210090164800F032F8E6
:101C500000250FE000BF04211248FFF781FF002894
:101C6000F9D0104800F020F86055207840B201907B
:101C7000681C45B2BD42EDDB207801026078FC2291
:101C8000104009180698016000BF20210548FFF7A1
:101C900067FF0028F9D020210248FFF753FF07B063
:101CA000F0BD0000005400400146486AC0B27047D1
:101CB00081627047F0B50C4600214168074D29400C
:101CC000A505AD0D1604FF273F043E4035431D43D7
:101CD000059E354329434160F0BD0000009800FC9B
:101CE00070471CB510200090012168460171002149
:101CF000817141710121C17169460920C006FFF758
:101D0000F1FD01F0B5F800F0BFF8FF210131092025
:101D1000C006FFF75BFE10210920C006FFF778FE22
:101D20001CBD000010B5FF200130144908810522B8
:101D300013492A2000F050F90021212000F074F905
:101D40000121222000F070F90221252000F06CF919
:101D50001E21312000F068F90721262000F064F9E7
:101D60003B21202000F060F9FF2001300921C90645
:101D70008861962001F001FD10BD000020000048A0
:101D8000F23D0008F8B505460E4617460D480570A9
:101D900010200D490881284601F0AAF8009000247F
:101DA00004E001F0ADFE3055601CC4B2BC42F8DB6B
:101DB00010200921C9068861012001F0DEFC00988D
:101DC000F8BD00008C0000202000004870B50446DB
:101DD0000C48047010200C490881012001F0CDFC52
:101DE000204601F085F801F08BFE0546012001F048
:101DF000C4FC10200921C9068861012001F0BDFC46
:101E0000284670BD8C0000202000004870B50446B4
:101E10000720FFF7DBFF05462946272000F004F9DD
:101E20004020284000281CD008210F48FFF7C4FD9F
:101E30000E49087008460078002801D1012000E012
:101E40000020024608210848FFF7E6FD1E22214631
:101E50006120FFF797FFFF21E22000F0E5F8002066
:101E600070BD0120FCE70000000400488100002054
:101E700010B5FF200130034908813921202000F0EE
:101E8000D3F810BD2000004800B585B0012108033B
:101E900000F01AFB1021684681810321090241816B
:101EA00000210181C1800721018209028180002176
:101EB0000180C181FF21053141806946064801F05A
:101EC0004DF801210903044801F07AF80121024884
:101ED00001F02CF805B000BD0030014010B5FF2026
:101EE00001301649088105221549302000F074F8A8
:101EF000052214492A2000F06FF80021212000F06B
:101F000093F80021222000F08FF80021242000F017
:101F10008BF80221252000F087F80721262000F009
:101F200083F83A21202000F07FF8FF2001300921BA
:101F3000C9068861822001F020FC10BD2000004805
:101F4000E83D0008F23D000870B505460720164937
:101F50000870FF200130154908811E222946A02063
:101F600000F03AF8FF2001300921C906886182207B
:101F700001F003FC0720FFF729FF04462146272034
:101F800000F052F810202040002805D0FF21E12069
:101F900000F04AF8102070BD20202040002801D019
:101FA0002020F8E7FF20F6E78C0000202000004802
:101FB00010B5FF200130074908813B21202000F0A7
:101FC00033F8FF2001300921C9068861962001F00D
:101FD000D4FB10BD20000048F8B505460C46164657
:101FE0000F480570FF2001300E490881102008813C
:101FF000284600F07DFF0090002705E02078641C53
:1020000000F076FF781CC7B2B742F7DB1020092139
:10201000C9068861012001F0B0FB0098F8BD0000FE
:102020008C0000202000004870B505460C460E4884
:1020300005700E48047010200D490881012001F040
:102040009CFB284600F054FF0646204600F050FF57
:10205000012001F092FB10200921C90688610120AE
:1020600001F08BFB304670BD8C00002090000020FA
:102070002000004810B50024FFF730FF642001F075
:1020800050FB224616A11848FEF7B4F81648FFF791
:102090005BFF1DE0002015490870FFF743FE00BFFD
:1020A0001248FFF7B3FE0028FAD110480078012843
:1020B00000D10EE0FFF712FF224609A10A48FEF701
:1020C00099F80A2001F02DFB0748FFF73DFF641C3B
:1020D000E0E700BF01F0F6FB01200549087010BDE4
:1020E00041253034750000001E020020000200204F
:1020F0000D00002000218278002A27D0184A0323EF
:102100001B02D21803789B109B00D15802789207CB
:10211000D30EFF229A400B4693431946427892070A
:10212000120E03789B07DB0E9A4011430C4A0323DF
:102130001B02D21803789B109B00D1500278D30663
:10214000DB0E01229A40064B1A6007E00278D306A4
:10215000DB0E01229A40024B80331A607047000068
:1021600000E100E010B5002819DA1A4A03071B0F36
:10217000083B9B089B00D2588307DC0EFF23A3403B
:102180009A438B071B0E8407E40EA3401A43114B9E
:102190000407240F083CA408A4001A5118E00E4AB2
:1021A00003231B02D21883089B00D2588307DC0E3E
:1021B000FF23A3409A438B071B0E8407E40EA34022
:1021C0001A43054B032424021B198408A4001A5146
:1021D00010BD00001CED00E000E100E0002807D089
:1021E00007490968FF2201321143054A116006E0E0
:1021F00003490968FF2201329143014A1160704787
:102200000070004010B502460020154B1868800889
:102210008000034613431846114B1860114B1B698D
:10222000042423430F4C2361012907D130BF2346E7
:102230001B690424A3430B4C23610FE0022907D13F
:1022400020BF084B1B690424A343064C236105E00F
:10225000044B1B6902242343024C236110BD000080
:102260000070004000ED00E070470000FEB5002463
:102270000025002601216A48FFF7A4F900BF0121CB
:102280006748FFF7CDF90028F9D0002065490870AC
:102290006348FFF7FDF900BF634800780028FBD0D2
:1022A0000020614908705E48FFF7F7F900215C489B
:1022B000FFF788F900205D49087016E05B48007858
:1022C00040005B49085A041958480078401C4000F7
:1022D000085A451955480078801C4000085A86194C
:1022E00052480078C01C5149087050480078962820
:1022F000E4DB32212046FEF78BF8044632212846E3
:10230000FEF786F8054632213046FEF781F806468C
:102310003046FEF733FA47490190488BFEF72EFA14
:1023200000900199FEF74EF90746434901F068FC19
:10233000424908602046FEF721FA8B21C90500902A
:10234000FEF740F90746012189073C48006801F083
:1023500057FC3946019001F053FC39490860284682
:10236000FEF70CFA8B21C9050090FEF72BF9074602
:10237000012189073148006801F042FC394601908B
:1023800001F03EFC2F49086000202F4908602F49CA
:1023900008602649087020E02D492E4800F09CFE78
:1023A0002B480068FEF7E2F90746274801683846DF
:1023B00001F0E0FB2449086026480068FEF7D6F9E2
:1023C000074622480168384601F0D4FB1F490860DF
:1023D00016480078401C15490870144800780A28EF
:1023E000DADB1D4918480068FEF7ECF8164908606A
:1023F000194916480068FEF7E5F8144908601749BE
:102400000F48006801F054FC15490D48006801F0C0
:102410004FFC14490A48006801F04AFCFEBD000068
:102420000024014000000020080000200A000020D5
:1024300094000020A0F7FF1F333353401C000020FE
:10244000140000201800002030000020340000207C
:10245000280000202C00002000401C4600006040A6
:102460003333734033338340002905D0054A526922
:102470000243044B5A6104E0024A52698243014B11
:102480005A61704700100240002905D0054AD26900
:102490000243044BDA6104E0024AD2698243014BF1
:1024A000DA61704700100240002905D0054A126920
:1024B0000243044B1A6104E0024A12698243014B51
:1024C0001A61704700100240002905D0054A926940
:1024D0000243044B9A6104E0024A92698243014B31
:1024E0009A61704700100240002905D0054AD26861
:1024F0000243044BDA6004E0024AD2688243014B93
:10250000DA60704700100240002807D00749096AC6
:10251000012212041143054A116206E00349096AC7
:10252000012212049143014A1162704700100240D7
:10253000FEB5044600250026002002900190009080
:102540000027704840680C2108400546002D06D041
:10255000042D07D0082D08D00C2D2CD128E06A4876
:1025600020602BE06848206028E0664840680F2122
:10257000890408400646634840680321C9030840AF
:102580000290B00C861C0298002803D15F483746A1
:1025900047430BE05B48C06A0007000F401C0190F6
:1025A00059480199FDF734FF70430746276005E05D
:1025B0005748206002E05448206000BF00BF5148E7
:1025C0004068F021084005462D095248405D0090C2
:1025D00021680098C14061604A48406807210902AB
:1025E000084005462D0A4B48405D00906168009800
:1025F000C140A1604348006BFF210131084088427F
:1026000002D04548E0600DE03E4840680121890362
:102610000840884203D0A0684008E06002E0A0685B
:102620008008E0603748006B40210840402802D015
:102630003A48206102E00120C00320613148006B6C
:1026400010210840102802D02F48606101E0206866
:1026500060612C48006B8007800F002802D1A068C1
:10266000A06119E02748006B8007800F012802D184
:102670002068A06110E02348006B8007800F0228CB
:1026800002D18003A06107E01E48006B8007800F25
:10269000032801D11C48A0611A48006B03210904DA
:1026A0000840002802D1A068E06120E01548006BD6
:1026B00003210904084001210904884202D120684D
:1026C000E06114E00F48006B032109040840012178
:1026D0004904884202D18010E06108E00948006B9B
:1026E000032109040840884201D10748E0610548F8
:1026F000006B80210840802802D00548206200E05D
:102700002762FEBD0010024000127A0000093D0061
:10271000006CDC0254000020809FD5001280000075
:1027200010B502460021002300205111002902D1DA
:102730000C4C23680BE0012902D10A4C236A06E005
:10274000022902D1074C636A01E0064C636BD10693
:10275000C90E01248C401C40002C01D0012000E057
:10276000002010BD00100240024840680C210840C3
:102770007047000000100240002806D00649096892
:1027800001221143044A116005E003490968490820
:102790004900014A11607047001002400549096B69
:1027A00010229143034A11631146096B01431163DF
:1027B0007047000000100240002806D00649496A10
:1027C00001221143044A516205E00349496A49085C
:1027D0004900014A5162704700100240002807D0AA
:1027E00007490968012212061143054A116006E0F3
:1027F00003490968012212069143014A116070479A
:1028000000100240002807D00749096A0122D203BC
:102810001143054A116206E00349096A0122D20305
:102820009143014A11627047001002400249096A4F
:102830000143014A11627047001002400146002026
:10284000044A50688008800002460A431046014A44
:10285000506070470010024038B5024600240094D2
:1028600000230020CA24174D6C6253246C62002997
:1028700005D02C46A4681443AC6001201DE0114C27
:10288000A46894430F4DAC6000BF0E4CE468150A79
:102890002C402346009C641C00940125AD03009C41
:1028A000AC4201D0002BF0D0064CE468150A2C4055
:1028B000002C01D1002000E00120FF24014D6C62BA
:1028C00038BD00000028004000B585B000216846F2
:1028D000C170012101704170002181701F210173BD
:1028E00000200290104801906A46FF21013100202B
:1028F00000F0B0F900216846C17401210174002183
:102900004174817404A9012000F010FA0121080328
:1029100000F042F901210802FFF79EFF01200003A9
:1029200000F020F805B000BD00808080014600BFA7
:10293000F020084000110A23584302460807000F00
:102940008018C0B270470146002204E0501CC2B299
:1029500008460A38C1B20A29F8DA1007000E0843FF
:102960007047000010B50021010980220A4392B28D
:10297000D243044BDB68802423401A43014BDA60C6
:1029800010BD00000028004010B588B000240121CF
:102990000807FFF779FD0120FFF720FC0120FFF772
:1029A000B3FD0020FFF7B0FD0120FFF705FF00BFDA
:1029B0004120FFF7B5FE0028FAD001204002FFF7C2
:1029C00035FF0120FFF71EFF00F040F800F01AFA73
:1029D000FFF766F804460020049063200590642108
:1029E0002046FDF715FD401E069004A800F006F9EC
:1029F000002801D100BFFEE700216846C177012110
:102A0000017700214177817707A9012000F08EF935
:102A100001204004FEF7A4FE0120400402900021A2
:102A200068460173082141730121817302A8FEF7F2
:102A300015FF022168460171002141710121817158
:102A400001A8FFF757FB08B010BD000010B5002427
:102A5000CA20174948625320486200F031F8002824
:102A600000D11FE000201249086012484861124856
:102A7000486008468068002088601048086100208F
:102A8000C861C862C8630A49403148600849C860E3
:102A900007494031086000F0B5F9002801D1002451
:102AA00000E00124FF2002494862204610BD0000DA
:102AB00000280040FFFF000001210000FF007F0010
:102AC00008B50022009200200021124AD26840235B
:102AD0001A40002A1BD1421E0E4BDA6000BF0D4A7D
:102AE000D26840231A401146009A521C00921B02E1
:102AF000009A9A4201D00029F1D0064AD2684023B8
:102B00001A40002A01D0012002E0002000E001204C
:102B100008BD0000002800400348C06880218843A9
:102B20000149C860704700000028004070B50146A8
:102B30000020002200230F4C246804252C4022464C
:102B40000C4C403CA4680C408E0C0D46F540ED0B3F
:102B500015402C432346074C403CE4680D092C40AB
:102B60002246002B04D094B2002C01D0012000E0BA
:102B7000002070BD4028004010B501200003FFF781
:102B8000D5FF002807D001200003FFF7EBFE01204E
:102B90004004FEF7E5FD10BD10B5CA22164B5A627F
:102BA00053225A62002911D01A469268042403461F
:102BB000A3431A43104B9A600F4A40321268042311
:102BC00003401A430C4B40331A6010E00A4A9268E3
:102BD00004240346A3439A43074B9A60064A4032B3
:102BE0001268042303409A43034B40331A60FF22C8
:102BF000014B5A6210BD00000028004030B5044669
:102C00000025CA201249486253204862FFF758FF46
:102C1000002800D117E00E488068402188430C4905
:102C20008860084680682168084309498860A06870
:102C3000086108460069A18809040843044908613D
:102C4000FFF76AFF0125FF2001494862284630BD91
:102C500000280040F8B5054614460026002D0ED188
:102C60003148806840210840002800D002E0002060
:102C7000E07000BFA068002800D11BE01AE02A48DD
:102C8000806840210840002804D02078FFF74EFEDD
:102C9000064602E00020E07000BFA068002804D1D2
:102CA000207BFFF743FE064604E0207BFFF73EFE55
:102CB000064600BF002D12D020780004617809027A
:102CC0000843A1780843E17809040843217B0906F9
:102CD0000843A168084361680843064619E0207864
:102CE000FFF731FE07046078FFF72DFE000207436F
:102CF000A078FFF728FE0743E07800040743207B15
:102D0000FFF721FE00060743A068074360680743FA
:102D10003E46CA2004494862532048620846C661BC
:102D2000FF204862F8BD000000280040F8B50546C5
:102D30000C46002600200090002D0AD12F48806804
:102D400040210840002800D002E00020E07000BFD1
:102D50000EE02A48806840210840002804D02078EE
:102D6000FFF7E4FD064602E00020E07000BF00BF70
:102D7000002D0BD020780004617809020843A17867
:102D80000843E17809040843064610E02078FFF77D
:102D9000DAFD07046078FFF7D6FD00020743A0784C
:102DA000FFF7D1FD0743E078000407433E46CA2001
:102DB0001249486253204862FFF782FE002801D181
:102DC000009016E00E4830400C490860FFF7A4FE62
:102DD0000A48806820210840002808D100F012F835
:102DE000002801D1009004E00120009001E00120C2
:102DF0000090FF20014948620098F8BD002800407B
:102E00007F7F7F0008B50022009200200021174A32
:102E1000926820231A40002A01D0012025E0CA220E
:102E2000124B5A6253225A621A46D268A0239A431E
:102E30000E4BDA6000BF0D4AD26820231A401146BB
:102E4000009A521C00929B02009A9A4201D00029DB
:102E5000F1D0064AD26820231A40002A01D001206E
:102E600000E00020FF22014B5A6208BD002800400C
:102E70001CB501214804FFF7F7FA002205210920BB
:102E8000C006FEF777FD002206210920C006FEF7E6
:102E900071FD002207210920C006FEF76BFDA0206E
:102EA000009000216846817102210171C1710121E8
:102EB000417169460920C006FEF714FD02216846EB
:102EC00001714020009001216846C17169460920C6
:102ED000C006FEF707FDFF20013000900121684683
:102EE000017169460920C006FEF7FCFC1CBD00000C
:102EF00070B50446002500BF02210B4800F024F8FD
:102F00000028F9D02146084800F064F800BF0121EC
:102F1000054800F019F80028F9D0034800F04AF8F5
:102F20000546284670BD000000300140002904D04D
:102F3000028840231A43028003E00288014B1A40B2
:102F400002807047BFFF00000246002013890B403B
:102F5000002B01D0012000E00020704710B50022B6
:102F60000288C1239B011A400B88CC892343CC885B
:102F700023430C8923434C8923438C8923431A43DD
:102F800002808288084B1A408B881A4382800B8A01
:102F900003820288054B1A404B881A430280838BB8
:102FA000034C2340838310BDFFF00000FBFF0000B3
:102FB000FFF70000014600220A460C3210787047E5
:102FC0008288034B1A40828082880A43828070473D
:102FD000FFEF0000002202460C321170704770476C
:102FE00030B500228B071C0F0F23A3401A460B4B52
:102FF0008C10A4001B599343084C8D10AD006351F5
:1030000023468C10A4001B598C07250F0446AC40A6
:103010002343024C8D10AD00635130BD08000140C8
:1030200010B50120FFF7A8FB00BF0120FFF778FBD8
:103030000028FAD00120FFF7D1FB00BF1920FFF7CD
:103040006FFB0028FAD00220FFF7F8FB00BFFFF764
:103050008BFB0828FBD110BD11201D4908601D48BD
:1030600040681C4948600846406848600846406817
:103070007F21C903884317494860084640680521F5
:10308000C90408431349486008460068012109063D
:1030900008431049086000BF0E4800680121490636
:1030A00008400028F8D00B48406880088000094993
:1030B000486008464068022108430649486000BF4E
:1030C000044840680C2108400828F9D170470000E6
:1030D000002002400010024038B504460D46234649
:1030E000022269461A20C043FEF77EFD0A49206885
:1030F0004843400B0949401A20602B46022269468A
:103100001C20C043FEF770FD054928684843401362
:103110000449401A286038BD093D000070170000BE
:10312000CD55000002B7000010B50446601E0949E5
:10313000884201D9012010BD601E07494861032162
:10314000081FFFF70FF80020034988610720086176
:103150000020F0E7FFFFFF0000E000E00548006806
:10316000401E0449086004480068401C0249086089
:1031700070470000780000207C00002010B51B483C
:103180000068012108431949086008464068184949
:103190000840164948600846006816490840134927
:1031A0000860084600680121890488430F490860C7
:1031B000084640683F21090488430C494860084696
:1031C000C06A00090001C8620846006BFF21543143
:1031D0008843064908630846406B4008400048633E
:1031E00000208860FFF738FF10BD0000001002408B
:1031F0000CB8FFF8FFFFF6FEF0B50C4600210025E5
:10320000068C0A4F3E400684018B058C074EF23E29
:1032100031401E05360C16433143044E093E3540FD
:1032200001262643354301830584F0BDFEFF0000DF
:10323000F8B50C460021002500260096068C0D4F9F
:103240003E400684018B058C2605360C00960A4EFE
:1032500031401E07360C31431606360C3143054EFD
:10326000903E35401027009E3E4335430183058440
:10327000F8BD0000EFFF0000FF0C0000F8B50C46A1
:103280000021002500260096068C0C4F3E40068447
:10329000818B058C2606360C0096084E0D36314083
:1032A0001E05360C16433143054E3540FF270137C6
:1032B000009E3E43354381830584F8BDFFFE000038
:1032C000FFF50000F8B50C46002100250026009609
:1032D000068C0D4F3E400684818B058C2607360CEC
:1032E00000960A4E31401606360C31431E07360C46
:1032F0003143074E354001273F03009E3E4335438F
:1033000081830584F8BD0000FFEF0000FF0C000082
:10331000FF5F000010B502211F4800F008F90028E7
:1033200038D002211C4800F06CF81C4800680028C6
:1033300008D1194800F0F8F8194908600120174928
:10334000086027E015480068012823D1124800F0E2
:10335000EBF814490860002202210F4800F032F90E
:10336000104800680E490968884207D90D4800686E
:103370000B490968401A0C49086008E008480068D1
:103380000A49081A074909684018074908600220D5
:103390000249086010BD00000020004068000020C5
:1033A00070000020740000206C000020FFFF00006F
:1033B00010B501210E4800F0BAF8002816D00121FE
:1033C0000B4800F01BF808210A48FEF7F5FA40B256
:1033D0000949087008460078002801D1012000E062
:1033E0000020024608210348FEF716FB10BD00002E
:1033F000000400400004004881000020CA4302820B
:103400007047CA4302827047002904D00288012312
:103410001A43028003E00288014B1A400280704781
:10342000FEFF000010B504463748844208D1012150
:10343000C014FFF759F80021E014FFF755F862E0D7
:1034400001208007844208D101210846FFF72CF8AB
:1034500000210120FFF728F855E02C48844208D1CC
:1034600001210220FFF720F800210220FFF71CF8BD
:1034700049E02748844208D101211020FFF714F8C1
:1034800000211020FFF710F83DE02248844208D1C7
:1034900001212020FFF708F800212020FFF704F881
:1034A00031E01D48844208D101218015FEF7FCFF60
:1034B0000021A015FEF7F8FF25E01848844209D145
:1034C00001210804FFF710F8002101200004FFF794
:1034D0000BF818E01248844209D101214804FFF793
:1034E00003F8002101204004FEF7FEFF0BE00D4829
:1034F000844208D101218804FEF7F6FF0021012053
:103500008004FEF7F1FF10BD002C014000040040D4
:103510000010004000140040002000400040014026
:1035200000440140004801400146486B704730B5F7
:103530000246002000230024158A0D402B46958961
:103540000D402C46002B03D0002C01D0012000E0C0
:10355000002030BD70B505460C46208800280AD1F1
:103560002389A28861882846FFF746FEE18828461D
:1035700000F038F825E0208804280AD12389A288A1
:1035800061882846FFF754FEE188284600F034F8A9
:1035900017E0208808280AD12389A2886188284654
:1035A000FFF76CFEE188284600F032F809E0238935
:1035B000A28861882846FFF785FEE188284600F04A
:1035C00031F870BD002A03D083890B43838102E068
:1035D00083898B43838170470185828270475022A3
:1035E00011527047028B034B1A400283028B0A432D
:1035F00002837047F3FF0000028B044B1A400283E2
:10360000028B0B061B0C1A4302837047FFF300006A
:10361000828B034B1A408283828B0A4382837047DA
:10362000F3FF0000828B044B1A408283828B0B06CF
:103630001B0C1A4382837047FFF3000000220288AC
:10364000154B984206D001239B07984202D0134B9A
:10365000984203D1124B1A404B881A43114B98429F
:1036600003D0114B1A400B891A4302804B68C36286
:103670000B880385084B984208D00C4B984205D024
:103680000B4B984202D00B4B984201D18B7A0386A8
:103690000123838270470000002C01400004004099
:1036A0008FFF000000100040FFFC000000400140C0
:1036B0000044014000480140F8B5040C8BB2264696
:1036C00082B25E43104658430D0C370C360400217D
:1036D0008019164679416E43370C36048019264608
:1036E00079416E438919F8BD4900CA0202431000AE
:1036F00000D004204A0D01D001221043044A490D94
:10370000914201D102210843012800D105207047D0
:10371000FF07000030380A2801D20120704700203E
:103720007047002100BF25E000BF00BF00BF00BF01
:1037300000BF00BF00BF00BF00BF00BF00BF00BF91
:1037400000BF00BF00BF00BF00BF00BF00BF00BF81
:1037500000BF00BF00BF00BF00BF00BF00BF00BF71
:1037600000BF00BF00BF00BF00BF00BF00BF00BF61
:103770004A1C91B28142D7DB704701467D20C001CF
:1037800000E000BF0246431E98B2002AF9D100BFF4
:103790007047000000B589B001214804FEF764FEBF
:1037A00003200790032108A801700021C17007A918
:1037B0000920C006FEF796F801214802FEF784FEB4
:1037C00000200190059001216846017200200490BC
:1037D0000390069001A91A48FDF744FF01218907CB
:1037E0001748FDF7EDFE072201211548FDF7DAFE27
:1037F000072202211248FDF7D5FE072201214904C4
:103800000F48FDF7CFFE0120FDF74CFF0C48FDF7F8
:10381000E5FE0C4908700C21684601700121817099
:1038200004214170FEF766FC012204210448FDF7E3
:103830000FFF012208210248FDF70AFF09B000BD71
:10384000002401403C00002000B589B00020FEF7B4
:10385000A5FF01214805FEF717FE01218804FEF7A8
:1038600003FEC0200790022108A8017000214170CA
:103870008170C17007A91048FEF734F801220621B3
:103880000D48FEF777F8012207210B48FEF772F882
:103890000A48009000200390049005900690019043
:1038A000029069460648FEF769F901210448FEF7CF
:1038B0004BF909B000BD000000040048A0860100DB
:1038C000005400401FB50121C802FEF7FDFD1B4852
:1038D000FFF7A8FD1A491B480068FCF799FD401E38
:1038E00019490880002168468181C1807D20C0007F
:1038F00002900146684681800021817301A90F482A
:10390000FFF79CFE0122104801880C48FFF764FE77
:103910000D2168460170012181704170FEF7EAFBBC
:1039200001210648FFF76AFD012211460348FFF70F
:1039300049FE01210148FFF767FD1FBD002C014032
:10394000808D5B00400000203E0000208EB0FEF71E
:1039500069F8FFF71FFFFFF777FFFEF7C2F9FEF7E1
:10396000E1F9FDF703FFFFF70FF864215248006803
:10397000FCF74EFD0446FFF7D7FB002801D000BF3F
:10398000FEE701210220FDF7A1FE0020FEF71EFA4E
:103990004A4908700120FEF719FA484908700220C8
:1039A000FEF714FA454908700320FEF70FFA434961
:1039B00008700420FEF70AFA404908700520FEF757
:1039C00005FA3E4908700620FEF700FA3B490870E8
:1039D0000720FEF7FBF9394908706CE0FEF774FF29
:1039E000FEF746FAFDF7F4FF01210846FEF70AFC50
:1039F000002101200003FFF7CFF80021FF20013054
:103A0000FEF72AFFFFF70CFBFEF7D2FA3220FDF794
:103A10006DFE00202A49086046E02A48FEF7F6F9C4
:103A20002848007802283FD1FEF720FC00202549D5
:103A30000870FEF753FA24480068FCF799FD044625
:103A40000D4622480068FCF793FD06460F462048C5
:103A50000068FCF78DFD0D910C901E480068FCF786
:103A600087FD0B910A901C480068FCF781FD0597C3
:103A7000049607950694099108900D990C98039166
:103A800002900B990A980191009014A11B48099B80
:103A9000089AFCF7AFFB1948FEF756FA0A20FFF721
:103AA00040FEFEF73FF905E0054800687D21C900AA
:103AB0008842B2D900BF91E74000002010000020EA
:103AC0007C00002000020020340000203000002094
:103AD0001C000020180000201400002025312E3288
:103AE000662025312E32662025312E326620253281
:103AF0002E32662025322E31660000001E02002084
:103B000010B5002400BF02210E48FFF71DFA00285F
:103B1000F9D000210B48FFF75DFA00BF01210948E9
:103B2000FFF712FA0028F9D000BF80210548FFF7FF
:103B30000BFA0028F9D10348FFF73CFA0446204667
:103B400010BD00000030014010B500290AD00878EF
:103B5000002807D005487844FDF774FC002801D000
:103B6000002010BD0248784410BD0000A6030000EC
:103B70009E03000070B501250400ED074C4020D4E1
:103B8000441A01D2001B0919C60D4B00F2B2FF2ADC
:103B900029D01B0E2CD000020C02D31A2C43DC407F
:103BA0002843051910D2280A02D3401C6D0611D0F3
:103BB000761EF6058019FF2A00DA70BDC00DC0051B
:103BC00070BD694000F0A6F801200543C541521CB4
:103BD000761CE8E764089C40C90161408900E7D190
:103BE0000124A043E4E71B0E440200D0034870BD4B
:103BF000002AFCD1C00FC00770BD00BF0000C07F0D
:103C000070B5420064414B005C41120E39D01B0E6E
:103C100038D0FF2A3CD0FF2B3AD040024902400A5C
:103C2000490A060045184E43000A090AD2184843BB
:103C3000ED017F3A0104731A4019190C4318990FCA
:103C400004D001215B0849075B1A521CD80904D330
:103C5000401CF50301D19D0607D0FF2A08D2D505E7
:103C600006D0E4072043401970BD0125A843F4E7BE
:103C7000002A01DCE00770BD2402FF202043C005BC
:103C800070BD1B0EFF2A03D0FF2B01D0E00770BDD3
:103C9000FF2645003606B54206D84D00B54203D88A
:103CA000D218FF2A00D0E7E7004870BD0000C07FAF
:103CB00001230A00DB0502430DD4DA4203D49A4201
:103CC00007D481427047D94214D4D84212D48142D9
:103CD000704789427047DA4203D59A42F9D5884243
:103CE00070475B004A00DA4204D24200DA4201D255
:103CF000884270474840414010B5024A4840FCF7AE
:103D0000D5FF10BD0900160470B501250400ED07AC
:103D10004C4022D4441A02D26C40001B0919C60D33
:103D20004B00F2B2FF2A4BD01B0E50D000020C0207
:103D3000D31A2C43DC40A843051B05D5AD0019D38D
:103D40006D08761E521E37D0F605280A01D280195A
:103D500070BD70416D0603D070BD6940FFF710FF64
:103D60009C4009026140490001D0401E70BD012401
:103D7000A04370BD6D081DD001202B0C01D12D0476
:103D800010302B0E01D12D0208302B0F01D12D0147
:103D9000001DAB0F01D1AD00801CEB0F01D16D00F8
:103DA000401C6D00361A121A680AF5054019012ADE
:103DB00002DB70BD002070BDC036300AC00770BD88
:103DC0001B0E440201D1FF2B00D1024870BD002A16
:103DD000F0D070BD0000C07F03B402487844844630
:103DE00003BC6047EFCBFFFFE7E7E7E7E7E7E7E77D
:103DF000E7E7E7E7E7E7E704000008000000000066
:103E0000000002000100001081828384858687887B
:103E1000898B8C8D8E8F919293959697999A9C9D74
:103E20009FA0A2A3A5A7A8AAACAEB0B2B3B5B7B9DC
:103E3000BCBEC0C2C5C7C9CCCED1D4D7D9DCDFE2A5
:103E4000E6E9ECF0F3F7FAFE02400000000000A003
:103E50000000000005400000000000C80000000055
:103E60000C4000000000409C0000000019400000D1
:103E70000020BCBE0000000034400000BFC91B8E03
:103E800000000004B5400000504BCFD06607E2CFE1
:103E9000010000006C4100003E8251AADFEEA73411
:103EA00001000000D9420000DCB5A0E23A301F97C3
:103EB000FFFFFFFFB4450000FD25A0C8E9A3C14FE7
:103EC000FFFFFFFFFF3F0000000000800000000038
:103ED000FF3F00000000008000000000183F0008C5
:103EE0000000002094000000F8000008AC3F00082B
:103EF000940000200C080000140100081C000000C1
:103F000043000000F8FFFFFF0C0000000E0000005F
:103F10000F0000002E000000000000000000000064
:103F20000000000000000000000000000000000091
:103F3000000000006666564000000000000000001F
:103F40000000000000000000000000000000000071
:103F50000000000000000000006CDC020000000017
:103F60000000000001020304060708090000000029
:103F7000010203040102030406070809000000000F
:103F80000000000000000000000000000000000031
:103F90000000000000000000000000000000000021
:0C3FA00000000000000000000000000015
:04000005080000B53A
:00000001FF
